:100000000C9475000C9492000C9492000C942A1F8E
:100010000C9492000C94AF1F0C9492000C949200DC
:100020000C9492000C9492000C9492000C94920008
:100030000C9492000C9492000C9492000C949200F8
:100040000C94D31F0C9492000C9492000C94920088
:100050000C9492000C94EA1F0C9492000C94920061
:100060000C9492000C94920007634236B79BD8A779
:100070001A39685618AEBAAB558C1D3CB7CC5763CD
:10008000BD6DEDFD753EF6177231BF000000803F7B
:1000900008000000BE922449123EABAAAA2ABECD97
:1000A000CCCC4C3E00000080BEABAAAAAA3E000009
:1000B0000000BF000000803F000000000008417801
:1000C000D3BB4387D1133D190E3CC3BD4282AD2B38
:1000D0003E68EC8276BED98FE1A93E4C80EFFFBE30
:1000E00001C4FF7F3F000000000011241FBECFEFBE
:1000F000D8E0DEBFCDBF12E0A0E0B1E0E2E3F8E57A
:1001000002C005900D92A434B107D9F712E0A4E41F
:10011000B2E001C01D92AE34B107E1F70E9463184E
:100120000C94172C0C9400000F931F93DF93CF9324
:10013000CDB7DEB7C05AD0400FB6F894DEBF0FBEC1
:10014000CDBFFE01E156FF4F8083FE01E056FF4F19
:100150006083FE01E056FF4F8081882341F4A5E2D1
:10016000B0E0E5E2F0E080818F7E8C9307C0A5E2ED
:10017000B0E0E5E2F0E0808180618C93ABE2B0E03A
:10018000EBE2F0E08081982F9F70FE01E156FF4F77
:100190008081807F892B8C93FE01E556FF4F80E0A4
:1001A00090E0A0E8BFE380839183A283B3838E01B4
:1001B00009561F4FFE01E556FF4F60817181828114
:1001C00093812BEA3AEA4AEA50E40E94BD23DC011B
:1001D000CB01F80180839183A283B383FE01E956AA
:1001E000FF4F608171818281938120E030E040E89F
:1001F0005FE30E94C325882334F4FE01EA56FF4FD3
:1002000081E08083E0C0FE01E956FF4F608171818B
:100210008281938120E030E04FE753E40E94632520
:1002200018160CF0C0C0FE01E556FF4F60817181C9
:100230008281938120E030E04AE754E40E94B724B1
:10024000DC01CB01FE01EE56FF4F80839183A28338
:10025000B3838E0102571F4FFE01EE56FF4F6081A0
:1002600071818281938120E030E04AE755E40E9469
:10027000BD23DC01CB01F80180839183A283B3838A
:10028000FE01E257FF4F608171818281938120E0FE
:1002900030E040E85FE30E94C325882344F4FE0178
:1002A000E457FF4F81E090E09183808364C0FE01BA
:1002B000E257FF4F608171818281938120E03FEF9F
:1002C0004FE757E40E94632518160CF043C0FE0167
:1002D000EE56FF4F608171818281938120E030E092
:1002E00040E251E40E94BD23DC01CB018E010457A2
:1002F0001F4FBC01CD010E94E721DC01CB01F801B9
:10030000918380831FC0FE01E657FF4F80E991E093
:1003100091838083FE01E657FF4F80819181019791
:10032000F1F7FE01E657FF4F91838083DE01A4576A
:10033000BF4FFE01E457FF4F8081918101971196D5
:100340009C938E93FE01E457FF4F8081918100972B
:10035000D1F64BC08E0104571F4FFE01E257FF4FED
:1003600060817181828193810E94E721DC01CB0150
:10037000F80191838083DE01A857BF4FFE01E45747
:10038000FF4F8081918111969C938E93FE01E857D7
:10039000FF4F808191810197F1F7FE01E857FF4FF0
:1003A0009183808322C08E010A561F4FFE01E956B9
:1003B000FF4F60817181828193810E94E721DC017E
:1003C000CB01F8018083DE01A957BF4FFE01EA5639
:1003D000FF4F80818C93FE01E957FF4F80818A9502
:1003E000F1F7FE01E957FF4F8083A5E2B0E0E5E2B7
:1003F000F0E0808180628C93FE01ED57FF4F80E03A
:1004000090E0A0E8BFE380839183A283B3838E0151
:1004100001581F4FFE01ED57FF4F608171818281AE
:1004200093812BEA3AEA4AEA50E40E94BD23DC01B8
:10043000CB01F80180839183A283B383FE01E1584D
:10044000FF4F608171818281938120E030E040E83C
:100450005FE30E94C325882334F4FE01E258FF4F76
:1004600081E08083E0C0FE01E158FF4F608171812F
:100470008281938120E030E04FE753E40E946325BE
:1004800018160CF0C0C0FE01ED57FF4F608171815E
:100490008281938120E030E04AE754E40E94B7244F
:1004A000DC01CB01FE01E658FF4F80839183A283DC
:1004B000B3838E010A581F4FFE01E658FF4F60813B
:1004C00071818281938120E030E04AE755E40E9407
:1004D000BD23DC01CB01F80180839183A283B38328
:1004E000FE01EA58FF4F608171818281938120E093
:1004F00030E040E85FE30E94C325882344F4FE0116
:10050000EC58FF4F81E090E09183808364C0FE014E
:10051000EA58FF4F608171818281938120E03FEF33
:100520004FE757E40E94632518160CF043C0FE0104
:10053000E658FF4F608171818281938120E030E035
:1005400040E251E40E94BD23DC01CB018E010C5836
:100550001F4FBC01CD010E94E721DC01CB01F80156
:10056000918380831FC0FE01EE58FF4F80E991E028
:1005700091838083FE01EE58FF4F80819181019726
:10058000F1F7FE01EE58FF4F91838083DE01AC58F6
:10059000BF4FFE01EC58FF4F80819181019711966A
:1005A0009C938E93FE01EC58FF4F808191810097C0
:1005B000D1F64BC08E010C581F4FFE01EA58FF4F79
:1005C00060817181828193810E94E721DC01CB01EE
:1005D000F80191838083DE01A059BF4FFE01EC58E2
:1005E000FF4F8081918111969C938E93FE01E0597B
:1005F000FF4F808191810197F1F7FE01E059FF4F94
:100600009183808322C08E0102581F4FFE01E15862
:10061000FF4F60817181828193810E94E721DC011B
:10062000CB01F8018083DE01A159BF4FFE01E258E2
:10063000FF4F80818C93FE01E159FF4F80818A95A5
:10064000F1F7FE01E159FF4F8083A5E2B0E0E5E25A
:10065000F0E080818F7D8C93FE01E559FF4F80E0B3
:1006600090E0A4E3B2E480839183A283B3838E01FC
:1006700009591F4FFE01E559FF4F60817181828149
:1006800093812BEA3AEA4AEA50E40E94BD23DC0156
:10069000CB01F80180839183A283B383FE01E959E2
:1006A000FF4F608171818281938120E030E040E8DA
:1006B0005FE30E94C325882334F4FE01EA59FF4F0B
:1006C00081E08083E0C0FE01E959FF4F60817181C4
:1006D0008281938120E030E04FE753E40E9463255C
:1006E00018160CF0C0C0FE01E559FF4F6081718102
:1006F0008281938120E030E04AE754E40E94B724ED
:10070000DC01CB01FE01EE59FF4F80839183A28370
:10071000B3838E01025A1F4FFE01EE59FF4F6081D5
:1007200071818281938120E030E04AE755E40E94A4
:10073000BD23DC01CB01F80180839183A283B383C5
:10074000FE01E25AFF4F608171818281938120E036
:1007500030E040E85FE30E94C325882344F4FE01B3
:10076000E45AFF4F81E090E09183808364C0FE01F2
:10077000E25AFF4F608171818281938120E03FEFD7
:100780004FE757E40E94632518160CF043C0FE01A2
:10079000EE59FF4F608171818281938120E030E0CA
:1007A00040E251E40E94BD23DC01CB018E01045ADA
:1007B0001F4FBC01CD010E94E721DC01CB01F801F4
:1007C000918380831FC0FE01E65AFF4F80E991E0CC
:1007D00091838083FE01E65AFF4F808191810197CA
:1007E000F1F7FE01E65AFF4F91838083DE01A45AA0
:1007F000BF4FFE01E45AFF4F80819181019711960E
:100800009C938E93FE01E45AFF4F80819181009763
:10081000D1F64BC08E01045A1F4FFE01E25AFF4F22
:1008200060817181828193810E94E721DC01CB018B
:10083000F80191838083DE01A85ABF4FFE01E45A7C
:10084000FF4F8081918111969C938E93FE01E85A0F
:10085000FF4F808191810197F1F7FE01E85AFF4F28
:100860009183808322C08E010A591F4FFE01E959EE
:10087000FF4F60817181828193810E94E721DC01B9
:10088000CB01F8018083DE01A95ABF4FFE01EA596E
:10089000FF4F80818C93FE01E95AFF4F80818A953A
:1008A000F1F7FE01E95AFF4F8083ABE2B0E0EBE2E3
:1008B000F0E08081282F2F70FE01E156FF4F8081EC
:1008C000882F90E082959295907F9827807F982737
:1008D000822B8C93FE01ED5AFF4F80E090E0A0E860
:1008E000BFE380839183A283B3838E01015B1F4F9B
:1008F000FE01ED5AFF4F60817181828193812BEA65
:100900003AEA4AEA50E40E94BD23DC01CB01F80137
:1009100080839183A283B383FE01E15BFF4F6081FB
:1009200071818281938120E030E040E85FE30E94A2
:10093000C325882334F4FE01E25BFF4F81E080830E
:10094000E0C0FE01E15BFF4F608171818281938194
:1009500020E030E04FE753E40E94632518160CF0C6
:10096000C0C0FE01ED5AFF4F608171818281938189
:1009700020E030E04AE754E40E94B724DC01CB01D8
:10098000FE01E65BFF4F80839183A283B3838E01D8
:100990000A5B1F4FFE01E65BFF4F60817181828120
:1009A000938120E030E04AE755E40E94BD23DC015A
:1009B000CB01F80180839183A283B383FE01EA5BBC
:1009C000FF4F608171818281938120E030E040E8B7
:1009D0005FE30E94C325882344F4FE01EC5BFF4FD4
:1009E00081E090E09183808364C0FE01EA5BFF4F69
:1009F000608171818281938120E03FEF4FE757E46E
:100A00000E94632518160CF043C0FE01E65BFF4F01
:100A1000608171818281938120E030E040E251E485
:100A20000E94BD23DC01CB018E010C5B1F4FBC017A
:100A3000CD010E94E721DC01CB01F8019183808385
:100A40001FC0FE01EE5BFF4F80E991E09183808340
:100A5000FE01EE5BFF4F808191810197F1F7FE016E
:100A6000EE5BFF4F91838083DE01AC5BBF4FFE01E5
:100A7000EC5BFF4F80819181019711969C938E933F
:100A8000FE01EC5BFF4F808191810097D1F642C05F
:100A90008E010C5B1F4FFE01EA5BFF4F608171818D
:100AA000828193810E94E721DC01CB01F8019183CF
:100AB0008083DE01A05CBF4FFE01EC5BFF4F8081B5
:100AC000918111969C938E93FE01E05CFF4F808193
:100AD00091810197F1F7FE01E05CFF4F91838083E4
:100AE00019C08E01025B1F4FFE01E15BFF4F608169
:100AF0007181828193810E94E721DC01CB01F801A1
:100B00008083FE01E25BFF4F80818FAF8FAD8A95BE
:100B1000F1F78FAFA5E2B0E0E5E2F0E0808180621E
:100B20008C9380E090E0A0E8BFE38BAF9CAFADAFCB
:100B3000BEAF6BAD7CAD8DAD9EAD2BEA3AEA4AEA15
:100B400050E40E94BD23DC01CB018FAB98AFA9AF6D
:100B5000BAAF6FA978AD89AD9AAD20E030E040E83A
:100B60005FE30E94C32588231CF481E08EAB91C013
:100B70006FA978AD89AD9AAD20E030E04FE753E43E
:100B80000E94632518160CF07BC06BAD7CAD8DAD5B
:100B90009EAD20E030E04AE754E40E94B724DC0137
:100BA000CB018AAB9BABACABBDAB6AA97BA98CA9D3
:100BB0009DA920E030E04AE755E40E94BD23DC0116
:100BC000CB018EA79FA7A8ABB9AB6EA57FA588A9BF
:100BD00099A920E030E040E85FE30E94C325882324
:100BE0002CF481E090E09DA78CA73FC06EA57FA567
:100BF00088A999A920E03FEF4FE757E40E946325B9
:100C000018164CF56AA97BA98CA99DA920E030E0B3
:100C100040E251E40E94BD23DC01CB01BC01CD01C7
:100C20000E94E721DC01CB019DA78CA70FC080E9C2
:100C300091E09BA78AA78AA59BA50197F1F79BA79F
:100C40008AA78CA59DA501979DA78CA78CA59DA57E
:100C5000009769F724C06EA57FA588A999A90E946D
:100C6000E721DC01CB019DA78CA78CA59DA599A7A9
:100C700088A788A599A50197F1F799A788A70FC01C
:100C80006FA978AD89AD9AAD0E94E721DC01CB0157
:100C90008EAB8EA98FA38FA18A95F1F78FA3A5E2C2
:100CA000B0E0E5E2F0E080818F7D8C9380E090E021
:100CB000A4E3B2E48BA39CA3ADA3BEA36BA17CA1D0
:100CC0008DA19EA12BEA3AEA4AEA50E40E94BD2394
:100CD000DC01CB018F8F98A3A9A3BAA36F8D78A154
:100CE00089A19AA120E030E040E85FE30E94C3259B
:100CF00088231CF481E08E8F91C06F8D78A189A12B
:100D00009AA120E030E04FE753E40E9463251816D3
:100D10000CF07BC06BA17CA18DA19EA120E030E0F6
:100D20004AE754E40E94B724DC01CB018A8F9B8FF1
:100D3000AC8FBD8F6A8D7B8D8C8D9D8D20E030E0DA
:100D40004AE755E40E94BD23DC01CB018E8B9F8BCB
:100D5000A88FB98F6E897F89888D998D20E030E0CA
:100D600040E85FE30E94C32588232CF481E090E0F3
:100D70009D8B8C8B3FC06E897F89888D998D20E0FB
:100D80003FEF4FE757E40E94632518164CF56A8D34
:100D90007B8D8C8D9D8D20E030E040E251E40E94FF
:100DA000BD23DC01CB01BC01CD010E94E721DC01A8
:100DB000CB019D8B8C8B0FC080E991E09B8B8A8B44
:100DC0008A899B890197F1F79B8B8A8B8C899D89F6
:100DD00001979D8B8C8B8C899D89009769F724C026
:100DE0006E897F89888D998D0E94E721DC01CB0176
:100DF0009D8B8C8B8C899D89998B888B888999890F
:100E00000197F1F7998B888B0FC06F8D78A189A11D
:100E10009AA10E94E721DC01CB018E8F8E8D8F87F6
:100E20008F858A95F1F78F87FE01E056FF4F80810D
:100E3000882309F079C0FE01E156FF4F808184309C
:100E400008F072C080E090E0A0E0B0E48B879C875F
:100E5000AD87BE876B857C858D859E8520E030E0E3
:100E60004AE755E40E94BD23DC01CB018F839887BC
:100E7000A987BA876F81788589859A8520E030E0D7
:100E800040E85FE30E94C32588232CF481E090E0D2
:100E90009E838D833FC06F81788589859A8520E008
:100EA0003FEF4FE757E40E94632518164CF56B851A
:100EB0007C858D859E8520E030E040E251E40E94F3
:100EC000BD23DC01CB01BC01CD010E94E721DC0187
:100ED000CB019E838D830FC080E991E09C838B833F
:100EE0008B819C810197F1F79C838B838D819E81FF
:100EF00001979E838D838D819E81009769F714C031
:100F00006F81788589859A850E94E721DC01CB0174
:100F10009E838D838D819E819A83898389819A8125
:100F20000197F1F79A838983C056DF4F0FB6F89483
:100F3000DEBF0FBECDBFCF91DF911F910F910895FE
:100F40000F931F93DF93CF93CDB7DEB7C455D14036
:100F50000FB6F894DEBF0FBECDBFA5E2B0E0E5E26C
:100F6000F0E080818F7E8C93A5E2B0E0E5E2F0E0D6
:100F700080818F7D8C93FE01EF5AFE4F80E090E0E0
:100F8000A0EAB1E480839183A283B3838E01035BE3
:100F90001E4FFE01EF5AFE4F608171818281938165
:100FA00020E030E04AE755E40E94BD23DC01CB019C
:100FB000F80180839183A283B383FE01E35BFE4F3C
:100FC000608171818281938120E030E040E85FE3BD
:100FD0000E94C325882344F4FE01E55BFE4F81E0B7
:100FE00090E09183808364C0FE01E35BFE4F6081EB
:100FF00071818281938120E03FEF4FE757E40E94A7
:10100000632518160CF043C0FE01EF5AFE4F6081B5
:1010100071818281938120E030E040E251E40E94BE
:10102000BD23DC01CB018E01055B1E4FBC01CD0150
:101030000E94E721DC01CB01F801918380831FC06E
:10104000FE01E75BFE4F80E991E091838083FE0122
:10105000E75BFE4F808191810197F1F7FE01E75B2D
:10106000FE4F91838083DE01A55BBE4FFE01E55BF1
:10107000FE4F80819181019711969C938E93FE0182
:10108000E55BFE4F808191810097D1F627C08E01EC
:10109000055B1E4FFE01E35BFE4F60817181828123
:1010A00093810E94E721DC01CB01F80191838083C9
:1010B000DE01A95BBE4FFE01E55BFE4F80819181A1
:1010C0008D939C93FE01E95BFE4F80819181019796
:1010D000F1F7FE01E95BFE4F91838083ABE2B0E064
:1010E000EBE2F0E080818F7080638C93FE01ED5B1A
:1010F000FE4F80E090E0A0E8BFE380839183A2836D
:10110000B3838E01015C1E4FFE01ED5BFE4F6081DB
:101110007181828193812BEA3AEA4AEA50E40E9483
:10112000BD23DC01CB01F80180839183A283B383CB
:10113000FE01E15CFE4F608171818281938120E03C
:1011400030E040E85FE30E94C325882334F4FE01C9
:10115000E25CFE4F81E08083E0C0FE01E15CFE4F77
:10116000608171818281938120E030E04FE753E418
:101170000E94632518160CF0C0C0FE01ED5BFE4F07
:10118000608171818281938120E030E04AE754E4FC
:101190000E94B724DC01CB01FE01E65CFE4F808398
:1011A0009183A283B3838E010A5C1E4FFE01E65C2D
:1011B000FE4F608171818281938120E030E04AE7B7
:1011C00055E40E94BD23DC01CB01F80180839183AB
:1011D000A283B383FE01EA5CFE4F6081718182814C
:1011E000938120E030E040E85FE30E94C32588233C
:1011F00044F4FE01EC5CFE4F81E090E0918380833B
:1012000064C0FE01EA5CFE4F60817181828193813E
:1012100020E03FEF4FE757E40E94632518160CF0DB
:1012200043C0FE01E65CFE4F608171818281938143
:1012300020E030E040E251E40E94BD23DC01CB011C
:101240008E010C5C1E4FBC01CD010E94E721DC0128
:10125000CB01F801918380831FC0FE01EE5CFE4F3D
:1012600080E991E091838083FE01EE5CFE4F8081F6
:1012700091810197F1F7FE01EE5CFE4F918380832F
:10128000DE01AC5CBE4FFE01EC5CFE4F80819181C3
:10129000019711969C938E93FE01EC5CFE4F80812A
:1012A00091810097D1F64BC08E010C5C1E4FFE0160
:1012B000EA5CFE4F60817181828193810E94E72107
:1012C000DC01CB01F80191838083DE01A05DBE4F7C
:1012D000FE01EC5CFE4F8081918111969C938E9370
:1012E000FE01E05DFE4F808191810197F1F7FE01E3
:1012F000E05DFE4F9183808322C08E01025C1E4F11
:10130000FE01E15CFE4F60817181828193810E94C8
:10131000E721DC01CB01F8018083DE01A15DBE4F36
:10132000FE01E25CFE4F80818C93FE01E15DFE4F89
:1013300080818A95F1F7FE01E15DFE4F8083A5E291
:10134000B0E0E5E2F0E0808180628C93FE01E55D33
:10135000FE4F80E090E0A0E8BFE380839183A2830A
:10136000B3838E01095D1E4FFE01E55DFE4F608176
:101370007181828193812BEA3AEA4AEA50E40E9421
:10138000BD23DC01CB01F80180839183A283B38369
:10139000FE01E95DFE4F608171818281938120E0D1
:1013A00030E040E85FE30E94C325882334F4FE0167
:1013B000EA5DFE4F81E08083E0C0FE01E95DFE4F03
:1013C000608171818281938120E030E04FE753E4B6
:1013D0000E94632518160CF0C0C0FE01E55DFE4FAB
:1013E000608171818281938120E030E04AE754E49A
:1013F0000E94B724DC01CB01FE01EE5DFE4F80832D
:101400009183A283B3838E01025E1E4FFE01EE5DC7
:10141000FE4F608171818281938120E030E04AE754
:1014200055E40E94BD23DC01CB01F8018083918348
:10143000A283B383FE01E25EFE4F608171818281EF
:10144000938120E030E040E85FE30E94C3258823D9
:1014500044F4FE01E45EFE4F81E090E091838083DE
:1014600064C0FE01E25EFE4F6081718182819381E2
:1014700020E03FEF4FE757E40E94632518160CF079
:1014800043C0FE01EE5DFE4F6081718182819381D8
:1014900020E030E040E251E40E94BD23DC01CB01BA
:1014A0008E01045E1E4FBC01CD010E94E721DC01CC
:1014B000CB01F801918380831FC0FE01E65EFE4FE1
:1014C00080E991E091838083FE01E65EFE4F80819A
:1014D00091810197F1F7FE01E65EFE4F91838083D3
:1014E000DE01A45EBE4FFE01E45EFE4F808191816D
:1014F000019711969C938E93FE01E45EFE4F8081CE
:1015000091810097D1F64BC08E01045E1E4FFE0103
:10151000E25EFE4F60817181828193810E94E721AA
:10152000DC01CB01F80191838083DE01A85EBE4F10
:10153000FE01E45EFE4F8081918111969C938E9313
:10154000FE01E85EFE4F808191810197F1F7FE0177
:10155000E85EFE4F9183808322C08E010A5D1E4F9C
:10156000FE01E95DFE4F60817181828193810E945D
:10157000E721DC01CB01F8018083DE01A95EBE4FCB
:10158000FE01EA5DFE4F80818C93FE01E95EFE4F15
:1015900080818A95F1F7FE01E95EFE4F8083A5E226
:1015A000B0E0E5E2F0E080818F7D8C93FE01ED5E9E
:1015B000FE4F80E090E0A4E3B2E480839183A283B5
:1015C000B3838E01015F1E4FFE01ED5EFE4F608111
:1015D0007181828193812BEA3AEA4AEA50E40E94BF
:1015E000BD23DC01CB01F80180839183A283B38307
:1015F000FE01E15FFE4F608171818281938120E075
:1016000030E040E85FE30E94C325882334F4FE0104
:10161000E25FFE4F81E08083E0C0FE01E15FFE4FAC
:10162000608171818281938120E030E04FE753E453
:101630000E94632518160CF0C0C0FE01ED5EFE4F3F
:10164000608171818281938120E030E04AE754E437
:101650000E94B724DC01CB01FE01E65FFE4F8083D0
:101660009183A283B3838E010A5F1E4FFE01E65F62
:10167000FE4F608171818281938120E030E04AE7F2
:1016800055E40E94BD23DC01CB01F80180839183E6
:10169000A283B383FE01EA5FFE4F60817181828184
:1016A000938120E030E040E85FE30E94C325882377
:1016B00044F4FE01EC5FFE4F81E090E09183808373
:1016C00064C0FE01EA5FFE4F608171818281938177
:1016D00020E03FEF4FE757E40E94632518160CF017
:1016E00043C0FE01E65FFE4F60817181828193817C
:1016F00020E030E040E251E40E94BD23DC01CB0158
:101700008E010C5F1E4FBC01CD010E94E721DC0160
:10171000CB01F801918380831FC0FE01EE5FFE4F75
:1017200080E991E091838083FE01EE5FFE4F80812E
:1017300091810197F1F7FE01EE5FFE4F9183808367
:10174000DE01AC5FBE4FFE01EC5FFE4F80819181F8
:10175000019711969C938E93FE01EC5FFE4F808162
:1017600091810097D1F64BC08E010C5F1E4FFE0198
:10177000EA5FFE4F60817181828193810E94E7213F
:10178000DC01CB01F80191838083DE01A050BF4FC3
:10179000FE01EC5FFE4F8081918111969C938E93A8
:1017A000FE01E050FF4F808191810197F1F7FE012A
:1017B000E050FF4F9183808322C08E01025F1E4F55
:1017C000FE01E15FFE4F60817181828193810E9401
:1017D000E721DC01CB01F8018083DE01A150BF4F7E
:1017E000FE01E25FFE4F80818C93FE01E150FF4FCE
:1017F00080818A95F1F7FE01E150FF4F8083FE0161
:10180000E550FF4F80E090E0A0EAB0E48083918350
:10181000A283B3838E0109501F4FFE01E550FF4F95
:10182000608171818281938120E030E04AE755E454
:101830000E94BD23DC01CB01F80180839183A28348
:10184000B383FE01E950FF4F6081718182819381F2
:1018500020E030E040E85FE30E94C325882344F4A1
:10186000FE01EB50FF4F81E090E09183808364C0E4
:10187000FE01E950FF4F608171818281938120E0F8
:101880003FEF4FE757E40E94632518160CF043C062
:10189000FE01E550FF4F608171818281938120E0DC
:1018A00030E040E251E40E94BD23DC01CB018E0117
:1018B0000B501F4FBC01CD010E94E721DC01CB0181
:1018C000F801918380831FC0FE01ED50FF4F80E936
:1018D00091E091838083FE01ED50FF4F80819181E3
:1018E0000197F1F7FE01ED50FF4F91838083DE01F8
:1018F000AB50BF4FFE01EB50FF4F808191810197AC
:1019000011969C938E93FE01EB50FF4F8081918145
:101910000097D1F627C08E010B501F4FFE01E950F2
:10192000FF4F60817181828193810E94E721DC01F8
:10193000CB01F80191838083DE01AF50BF4FFE01E0
:10194000EB50FF4F808191818D939C93FE01EF506E
:10195000FF4F808191810197F1F7FE01EF50FF4F1A
:1019600091838083FE01E351FF4F80E090E0A0E887
:10197000BFE380839183A283B3838E0107511F4FFE
:10198000FE01E351FF4F60817181828193812BEAD7
:101990003AEA4AEA50E40E94BD23DC01CB01F80197
:1019A00080839183A283B383FE01E751FF4F60815F
:1019B00071818281938120E030E040E85FE30E9402
:1019C000C325882334F4FE01E851FF4F81E0808372
:1019D000E0C0FE01E751FF4F6081718182819381F8
:1019E00020E030E04FE753E40E94632518160CF026
:1019F000C0C0FE01E351FF4F6081718182819381FC
:101A000020E030E04AE754E40E94B724DC01CB0137
:101A1000FE01EC51FF4F80839183A283B3838E013B
:101A200000521F4FFE01EC51FF4F60817181828196
:101A3000938120E030E04AE755E40E94BD23DC01B9
:101A4000CB01F80180839183A283B383FE01E0522E
:101A5000FF4F608171818281938120E030E040E816
:101A60005FE30E94C325882344F4FE01E252FF4F46
:101A700081E090E09183808364C0FE01E052FF4FDB
:101A8000608171818281938120E03FEF4FE757E4CD
:101A90000E94632518160CF043C0FE01EC51FF4F65
:101AA000608171818281938120E030E040E251E4E5
:101AB0000E94BD23DC01CB018E0102521F4FBC01ED
:101AC000CD010E94E721DC01CB01F80191838083E5
:101AD0001FC0FE01E452FF4F80E991E091838083B3
:101AE000FE01E452FF4F808191810197F1F7FE01E1
:101AF000E452FF4F91838083DE01A252BF4FFE016B
:101B0000E252FF4F80819181019711969C938E93B1
:101B1000FE01E252FF4F808191810097D1F64BC0C8
:101B20008E0102521F4FFE01E052FF4F6081718112
:101B3000828193810E94E721DC01CB01F80191832E
:101B40008083DE01A652BF4FFE01E252FF4F80812B
:101B5000918111969C938E93FE01E652FF4F8081F6
:101B600091810197F1F7FE01E652FF4F9183808347
:101B700022C08E0108511F4FFE01E751FF4F6081C7
:101B80007181828193810E94E721DC01CB01F80100
:101B90008083DE01A752BF4FFE01E851FF4F8081D5
:101BA0008C93FE01E752FF4F80818A95F1F7FE0189
:101BB000E752FF4F8083A5E2B0E0E5E2F0E08081EC
:101BC00080628C93FE01EB52FF4F80E090E0A0E832
:101BD000BFE380839183A283B3838E010F521F4F93
:101BE000FE01EB52FF4F60817181828193812BEA6C
:101BF0003AEA4AEA50E40E94BD23DC01CB01F80135
:101C000080839183A283B383FE01EF52FF4F6081F3
:101C100071818281938120E030E040E85FE30E949F
:101C2000C325882334F4FE01E053FF4F81E0808315
:101C3000E0C0FE01EF52FF4F60817181828193818C
:101C400020E030E04FE753E40E94632518160CF0C3
:101C5000C0C0FE01EB52FF4F608171818281938190
:101C600020E030E04AE754E40E94B724DC01CB01D5
:101C7000FE01E453FF4F80839183A283B3838E01DF
:101C800008531F4FFE01E453FF4F60817181828131
:101C9000938120E030E04AE755E40E94BD23DC0157
:101CA000CB01F80180839183A283B383FE01E853C3
:101CB000FF4F608171818281938120E030E040E8B4
:101CC0005FE30E94C325882344F4FE01EA53FF4FDB
:101CD00081E090E09183808364C0FE01E853FF4F70
:101CE000608171818281938120E03FEF4FE757E46B
:101CF0000E94632518160CF043C0FE01E453FF4F09
:101D0000608171818281938120E030E040E251E482
:101D10000E94BD23DC01CB018E010A531F4FBC0181
:101D2000CD010E94E721DC01CB01F8019183808382
:101D30001FC0FE01EC53FF4F80E991E09183808347
:101D4000FE01EC53FF4F808191810197F1F7FE0175
:101D5000EC53FF4F91838083DE01AA53BF4FFE01F6
:101D6000EA53FF4F80819181019711969C938E9346
:101D7000FE01EA53FF4F808191810097D1F64BC05D
:101D80008E010A531F4FFE01E853FF4F608171819E
:101D9000828193810E94E721DC01CB01F8019183CC
:101DA0008083DE01AE53BF4FFE01EA53FF4F8081B7
:101DB000918111969C938E93FE01EE53FF4F80818B
:101DC00091810197F1F7FE01EE53FF4F91838083DC
:101DD00022C08E0100531F4FFE01EF52FF4F608162
:101DE0007181828193810E94E721DC01CB01F8019E
:101DF0008083DE01AF53BF4FFE01E053FF4F808170
:101E00008C93FE01EF53FF4F80818A95F1F7FE011D
:101E1000EF53FF4F8083A5E2B0E0E5E2F0E0808180
:101E20008F7D8C93FE01E354FF4F80E090E0A4E3AC
:101E3000B2E480839183A283B3838E0107541F4F42
:101E4000FE01E354FF4F60817181828193812BEA0F
:101E50003AEA4AEA50E40E94BD23DC01CB01F801D2
:101E600080839183A283B383FE01E754FF4F608197
:101E700071818281938120E030E040E85FE30E943D
:101E8000C325882334F4FE01E854FF4F81E08083AA
:101E9000E0C0FE01E754FF4F608171818281938130
:101EA00020E030E04FE753E40E94632518160CF061
:101EB000C0C0FE01E354FF4F608171818281938134
:101EC00020E030E04AE754E40E94B724DC01CB0173
:101ED000FE01EC54FF4F80839183A283B3838E0174
:101EE00000551F4FFE01EC54FF4F608171818281CC
:101EF000938120E030E04AE755E40E94BD23DC01F5
:101F0000CB01F80180839183A283B383FE01E05566
:101F1000FF4F608171818281938120E030E040E851
:101F20005FE30E94C325882344F4FE01E255FF4F7E
:101F300081E090E09183808364C0FE01E055FF4F13
:101F4000608171818281938120E03FEF4FE757E408
:101F50000E94632518160CF043C0FE01EC54FF4F9D
:101F6000608171818281938120E030E040E251E420
:101F70000E94BD23DC01CB018E0102551F4FBC0125
:101F8000CD010E94E721DC01CB01F8019183808320
:101F90001FC0FE01E455FF4F80E991E091838083EB
:101FA000FE01E455FF4F808191810197F1F7FE0119
:101FB000E455FF4F91838083DE01A255BF4FFE01A0
:101FC000E255FF4F80819181019711969C938E93EA
:101FD000FE01E255FF4F808191810097D1F64BC001
:101FE0008E0102551F4FFE01E055FF4F6081718148
:101FF000828193810E94E721DC01CB01F80191836A
:102000008083DE01A655BF4FFE01E255FF4F808160
:10201000918111969C938E93FE01E655FF4F80812E
:1020200091810197F1F7FE01E655FF4F918380837F
:1020300022C08E0108541F4FFE01E754FF4F6081FC
:102040007181828193810E94E721DC01CB01F8013B
:102050008083DE01A755BF4FFE01E854FF4F80810A
:102060008C93FE01E755FF4F80818A95F1F7FE01C1
:10207000E755FF4F8083FE01EB55FF4F80E090E076
:10208000A8E4B3E480839183A283B3838E010F55C8
:102090001F4FFE01EB55FF4F60817181828193815B
:1020A0002BEA3AEA4AEA50E40E94BD23DC01CB0164
:1020B000F80180839183A283B383FE01EF55FF4F24
:1020C000608171818281938120E030E040E85FE3AC
:1020D0000E94C325882334F4FE01E056FF4F81E0BF
:1020E0008083E0C0FE01EF55FF4F608171818281E6
:1020F000938120E030E04FE753E40E9463251816F7
:102100000CF0C0C0FE01EB55FF4F608171818281F0
:10211000938120E030E04AE754E40E94B724DC01D8
:10212000CB01FE01E456FF4F80839183A283B383EA
:102130008E0108561F4FFE01E456FF4F60817181EA
:102140008281938120E030E04AE755E40E94BD237C
:10215000DC01CB01F80180839183A283B383FE016C
:10216000E856FF4F608171818281938120E030E0E9
:1021700040E85FE30E94C325882344F4FE01EA5649
:10218000FF4F81E090E09183808364C0FE01E856B8
:10219000FF4F608171818281938120E03FEF4FE7A3
:1021A00057E40E94632518160CF043C0FE01E45664
:1021B000FF4F608171818281938120E030E040E2B5
:1021C00051E40E94BD23DC01CB018E010A561F4F52
:1021D000BC01CD010E94E721DC01CB01F801918314
:1021E00080831FC0FE01EC56FF4F80E991E0918390
:1021F0008083FE01EC56FF4F808191810197F1F7BA
:10220000FE01EC56FF4F91838083DE01AA56BF4F3B
:10221000FE01EA56FF4F80819181019711969C93B0
:102220008E93FE01EA56FF4F808191810097D1F68F
:102230004BC08E010A561F4FFE01E856FF4F6081CA
:102240007181828193810E94E721DC01CB01F80139
:1022500091838083DE01AE56BF4FFE01EA56FF4FE9
:102260008081918111969C938E93FE01EE56FF4FD3
:10227000808191810197F1F7FE01EE56FF4F918326
:10228000808322C08E0100561F4FFE01EF55FF4F85
:1022900060817181828193810E94E721DC01CB0101
:1022A000F8018083DE01AF56BF4FFE01E056FF4FBD
:1022B00080818C93FE01EF56FF4F80818A95F1F764
:1022C000FE01EF56FF4F8083FE01E357FF4F80E092
:1022D00090E0A0E8BFE380839183A283B3838E0163
:1022E00007571F4FFE01E357FF4F608171818281C5
:1022F00093812BEA3AEA4AEA50E40E94BD23DC01CA
:10230000CB01F80180839183A283B383FE01E75759
:10231000FF4F608171818281938120E030E040E84D
:102320005FE30E94C325882334F4FE01E857FF4F82
:1023300081E08083E0C0FE01E757FF4F608171813B
:102340008281938120E030E04FE753E40E946325CF
:1023500018160CF0C0C0FE01E357FF4F6081718179
:102360008281938120E030E04AE754E40E94B72460
:10237000DC01CB01FE01EC57FF4F80839183A283E8
:10238000B3838E0100581F4FFE01EC57FF4F608151
:1023900071818281938120E030E04AE755E40E9418
:1023A000BD23DC01CB01F80180839183A283B38339
:1023B000FE01E058FF4F608171818281938120E0AE
:1023C00030E040E85FE30E94C325882344F4FE0127
:1023D000E258FF4F81E090E09183808364C0FE016A
:1023E000E058FF4F608171818281938120E03FEF4F
:1023F0004FE757E40E94632518160CF043C0FE0116
:10240000EC57FF4F608171818281938120E030E041
:1024100040E251E40E94BD23DC01CB018E01025851
:102420001F4FBC01CD010E94E721DC01CB01F80167
:10243000918380831FC0FE01E458FF4F80E991E043
:1024400091838083FE01E458FF4F80819181019741
:10245000F1F7FE01E458FF4F91838083DE01A2581B
:10246000BF4FFE01E258FF4F808191810197119685
:102470009C938E93FE01E258FF4F808191810097DB
:10248000D1F64BC08E0102581F4FFE01E058FF4F9E
:1024900060817181828193810E94E721DC01CB01FF
:1024A000F80191838083DE01A658BF4FFE01E258F8
:1024B000FF4F8081918111969C938E93FE01E65887
:1024C000FF4F808191810197F1F7FE01E658FF4FA0
:1024D0009183808322C08E0108571F4FFE01E7576A
:1024E000FF4F60817181828193810E94E721DC012D
:1024F000CB01F8018083DE01A758BF4FFE01E857EA
:10250000FF4F80818C93FE01E758FF4F80818A95B1
:10251000F1F7FE01E758FF4F8083A5E2B0E0E5E266
:10252000F0E0808180628C93FE01EB58FF4F80E0E9
:1025300090E0A0E8BFE380839183A283B3838E0100
:102540000F581F4FFE01EB58FF4F60817181828150
:1025500093812BEA3AEA4AEA50E40E94BD23DC0167
:10256000CB01F80180839183A283B383FE01EF58EE
:10257000FF4F608171818281938120E030E040E8EB
:102580005FE30E94C325882334F4FE01E059FF4F26
:1025900081E08083E0C0FE01EF58FF4F60817181D0
:1025A0008281938120E030E04FE753E40E9463256D
:1025B00018160CF0C0C0FE01EB58FF4F608171810E
:1025C0008281938120E030E04AE754E40E94B724FE
:1025D000DC01CB01FE01E459FF4F80839183A2838C
:1025E000B3838E0108591F4FFE01E459FF4F6081EC
:1025F00071818281938120E030E04AE755E40E94B6
:10260000BD23DC01CB01F80180839183A283B383D6
:10261000FE01E859FF4F608171818281938120E042
:1026200030E040E85FE30E94C325882344F4FE01C4
:10263000EA59FF4F81E090E09183808364C0FE01FE
:10264000E859FF4F608171818281938120E03FEFE3
:102650004FE757E40E94632518160CF043C0FE01B3
:10266000E459FF4F608171818281938120E030E0E5
:1026700040E251E40E94BD23DC01CB018E010A59E6
:102680001F4FBC01CD010E94E721DC01CB01F80105
:10269000918380831FC0FE01EC59FF4F80E991E0D8
:1026A00091838083FE01EC59FF4F808191810197D6
:1026B000F1F7FE01EC59FF4F91838083DE01AA59A7
:1026C000BF4FFE01EA59FF4F80819181019711961A
:1026D0009C938E93FE01EA59FF4F80819181009770
:1026E000D1F64BC08E010A591F4FFE01E859FF4F2A
:1026F00060817181828193810E94E721DC01CB019D
:10270000F80191838083DE01AE59BF4FFE01EA5983
:10271000FF4F8081918111969C938E93FE01EE591B
:10272000FF4F808191810197F1F7FE01EE59FF4F34
:102730009183808322C08E0100591F4FFE01EF5804
:10274000FF4F60817181828193810E94E721DC01CA
:10275000CB01F8018083DE01AF59BF4FFE01E05984
:10276000FF4F80818C93FE01EF59FF4F80818A9546
:10277000F1F7FE01EF59FF4F8083A5E2B0E0E5E2FB
:10278000F0E080818F7D8C93FE01E35AFF4F80E063
:1027900090E0A4E3B2E480839183A283B3838E01AB
:1027A000075A1F4FFE01E35AFF4F608171818281FA
:1027B00093812BEA3AEA4AEA50E40E94BD23DC0105
:1027C000CB01F80180839183A283B383FE01E75A92
:1027D000FF4F608171818281938120E030E040E889
:1027E0005FE30E94C325882334F4FE01E85AFF4FBB
:1027F00081E08083E0C0FE01E75AFF4F6081718174
:102800008281938120E030E04FE753E40E9463250A
:1028100018160CF0C0C0FE01E35AFF4F60817181B1
:102820008281938120E030E04AE754E40E94B7249B
:10283000DC01CB01FE01EC5AFF4F80839183A28320
:10284000B3838E01005B1F4FFE01EC5AFF4F608186
:1028500071818281938120E030E04AE755E40E9453
:10286000BD23DC01CB01F80180839183A283B38374
:10287000FE01E05BFF4F608171818281938120E0E6
:1028800030E040E85FE30E94C325882344F4FE0162
:10289000E25BFF4F81E090E09183808364C0FE01A2
:1028A000E05BFF4F608171818281938120E03FEF87
:1028B0004FE757E40E94632518160CF043C0FE0151
:1028C000EC5AFF4F608171818281938120E030E07A
:1028D00040E251E40E94BD23DC01CB018E01025B8A
:1028E0001F4FBC01CD010E94E721DC01CB01F801A3
:1028F000918380831FC0FE01E45BFF4F80E991E07C
:1029000091838083FE01E45BFF4F80819181019779
:10291000F1F7FE01E45BFF4F91838083DE01A25B50
:10292000BF4FFE01E25BFF4F8081918101971196BD
:102930009C938E93FE01E25BFF4F80819181009713
:10294000D1F64BC08E01025B1F4FFE01E05BFF4FD3
:1029500060817181828193810E94E721DC01CB013A
:10296000F80191838083DE01A65BBF4FFE01E25B2D
:10297000FF4F8081918111969C938E93FE01E65BBF
:10298000FF4F808191810197F1F7FE01E65BFF4FD8
:102990009183808322C08E01085A1F4FFE01E75A9F
:1029A000FF4F60817181828193810E94E721DC0168
:1029B000CB01F8018083DE01A75BBF4FFE01E85A1F
:1029C000FF4F80818C93FE01E75BFF4F80818A95EA
:1029D000F1F7FE01E75BFF4F8083ABE2B0E0EBE293
:1029E000F0E080818F7080628C93FE01EB5BFF4F83
:1029F00080E090E0A0E8BFE380839183A283B3836B
:102A00008E010F5B1F4FFE01EB5BFF4F60817181F9
:102A1000828193812BEA3AEA4AEA50E40E94BD237C
:102A2000DC01CB01F80180839183A283B383FE0193
:102A3000EF5BFF4F608171818281938120E030E004
:102A400040E85FE30E94C325882334F481E0FE015F
:102A5000E05CFF4F80839DC0FE01EF5BFF4F608114
:102A600071818281938120E030E04FE753E40E943E
:102A7000632518160CF07EC0FE01EB5BFF4F6081F2
:102A800071818281938120E030E04AE754E40E9422
:102A9000B724DC01CB018CAF9DAFAEAFBFAF6CAD47
:102AA0007DAD8EAD9FAD20E030E04AE755E40E9459
:102AB000BD23DC01CB0188AF99AFAAAFBBAF68AD36
:102AC00079AD8AAD9BAD20E030E040E85FE30E9445
:102AD000C32588232CF481E090E09FAB8EAB3FC0F0
:102AE00068AD79AD8AAD9BAD20E03FEF4FE757E48D
:102AF0000E94632518164CF56CAD7DAD8EAD9FAD73
:102B000020E030E040E251E40E94BD23DC01CB0133
:102B1000BC01CD010E94E721DC01CB019FAB8EAB54
:102B20000FC080E991E09DAB8CAB8CA99DA901976A
:102B3000F1F79DAB8CAB8EA99FA901979FAB8EAB94
:102B40008EA99FA9009769F72DC068AD79AD8AADB0
:102B50009BAD0E94E721DC01CB019FAB8EAB8EA920
:102B60009FA99BAB8AAB8AA99BA90197F1F79BAB65
:102B70008AAB18C0FE01EF5BFF4F608171818281DB
:102B800093810E94E721DC01CB01FE01E05CFF4F55
:102B90008083FE01E05CFF4F808189AB89A98A9523
:102BA000F1F789ABA5E2B0E0E5E2F0E08081806278
:102BB0008C9380E090E0A0E8BFE38DA79EA7AFA72D
:102BC000B8AB6DA57EA58FA598A92BEA3AEA4AEA8B
:102BD00050E40E94BD23DC01CB0189A79AA7ABA7D3
:102BE000BCA769A57AA58BA59CA520E030E040E8AC
:102BF0005FE30E94C32588231CF481E088A791C06D
:102C000069A57AA58BA59CA520E030E04FE753E4A9
:102C10000E94632518160CF07BC06DA57EA58FA5BC
:102C200098A920E030E04AE754E40E94B724DC0190
:102C3000CB018CA39DA3AEA3BFA36CA17DA18EA14C
:102C40009FA120E030E04AE755E40E94BD23DC016B
:102C5000CB0188A399A3AAA3BBA368A179A18AA148
:102C60009BA120E030E040E85FE30E94C325882379
:102C70002CF481E090E09F8F8E8F3FC068A179A1F6
:102C80008AA19BA120E03FEF4FE757E40E94632514
:102C900018164CF56CA17DA18EA19FA120E030E01B
:102CA00040E251E40E94BD23DC01CB01BC01CD0117
:102CB0000E94E721DC01CB019F8F8E8F0FC080E93E
:102CC00091E09D8F8C8F8C8D9D8D0197F1F79D8F5D
:102CD0008C8F8E8D9F8D01979F8F8E8F8E8D9F8D68
:102CE000009769F724C068A179A18AA19BA10E94DD
:102CF000E721DC01CB019F8F8E8F8E8D9F8D9B8F67
:102D00008A8F8A8D9B8D0197F1F79B8F8A8F0FC0D9
:102D100069A57AA58BA59CA50E94E721DC01CB01C2
:102D200088A788A5898F898D8A95F1F7898FA5E273
:102D3000B0E0E5E2F0E080818F7D8C9380E090E070
:102D4000A4E3B2E48D8B9E8BAF8BB88F6D897E89A7
:102D50008F89988D2BEA3AEA4AEA50E40E94BD2313
:102D6000DC01CB01898B9A8BAB8BBC8B69897A890F
:102D70008B899C8920E030E040E85FE30E94C32516
:102D800088231CF481E0888B91C069897A898B89BA
:102D90009C8920E030E04FE753E40E946325181639
:102DA0000CF07BC06D897E898F89988D20E030E0A2
:102DB0004AE754E40E94B724DC01CB018C879D874D
:102DC000AE87BF876C857D858E859F8520E030E04E
:102DD0004AE755E40E94BD23DC01CB01888799872F
:102DE000AA87BB87688579858A859B8520E030E046
:102DF00040E85FE30E94C32588232CF481E090E043
:102E00009F838E833FC0688579858A859B8520E076
:102E10003FEF4FE757E40E94632518164CF56C8589
:102E20007D858E859F8520E030E040E251E40E9460
:102E3000BD23DC01CB01BC01CD010E94E721DC01F7
:102E4000CB019F838E830FC080E991E09D838C83AB
:102E50008C819D810197F1F79D838C838E819F8169
:102E600001979F838E838E819F81009769F724C08D
:102E7000688579858A859B850E94E721DC01CB01E5
:102E80009F838E838E819F819B838A838A819B818E
:102E90000197F1F79B838A830FC069897A898B89AF
:102EA0009C890E94E721DC01CB01888B888989837A
:102EB00089818A95F1F7898388E260E00E94940015
:102EC00088E060E00E94940081E060E00E9494004D
:102ED0008CE060E00E94940080E860E00E94940032
:102EE000CC5ADE4F0FB6F894DEBF0FBECDBFCF91E8
:102EF000DF911F910F910895DF93CF9300D00F9230
:102F0000CDB7DEB79B838A8319820EC0EA81FB812D
:102F1000808161E00E94940089818F5F89838A812A
:102F20009B8101969B838A83EA81FB818081882330
:102F300069F789810F900F900F90CF91DF910895DD
:102F4000DF93CF93CDB7DEB728970FB6F894DEBFE7
:102F50000FBECDBF98878F8311C08F8198859E83C8
:102F60008D83ED81FE8184918C838C8161E00E9450
:102F700094008F819885019698878F838F8198859B
:102F80009B838A83EA81FB81849189838981882359
:102F900021F728960FB6F894DEBF0FBECDBFCF91B4
:102FA000DF910895EF92FF920F931F93DF93CF93DA
:102FB000CDB7DEB72C970FB6F894DEBF0FBECDBFEE
:102FC0009B878A876C871C821B821A8219828A855A
:102FD0009B85009709F456C08B819C8101969C8348
:102FE0008B838B819C81AA2797FDA095BA2FBC016A
:102FF000CD010E94F3259B01AC0160E070E080E20E
:1030000091E40E947129DC01CB017C018D018A854C
:103010009B85CC01A0E0B0E0BC01CD010E94A526BB
:103020009B01AC01C801B7010E9463251816A4F6E4
:103030008A859B859E012B5F3F4FB9010E94A42189
:103040008C8560E00E9494008B819C819A838983A7
:1030500013C08B819C819C0121503040CE0105968C
:10306000FC01E20FF31F808161E00E9494008B81DC
:103070009C8101979C838B838B819C8118161906F8
:1030800044F310C08A859B85009761F48C8560E0CD
:103090000E94940080E361E00E94940081E090E04F
:1030A0009A83898399818C85890F8F5F2C960FB6BF
:1030B000F894DEBF0FBECDBFCF91DF911F910F916E
:1030C000FF90EF900895EF92FF920F931F93DF937D
:1030D000CF93CDB7DEB7C557D0400FB6F894DEBF5B
:1030E0000FBECDBFE4E2F0E08EEF8083E5E2F0E0DA
:1030F00087E08083EAE2F0E088EF8083EBE2F0E0B3
:103100008FE28083ECE7F0E080E48083EAE7F0E0A0
:103110008FEC8083EBE7F0E01082EEE7F0E087E0F1
:103120008083E0E8F0E082E28083E1E8F0E08AE199
:103130008083E6E8F0E08FE99FE091838083EAE80E
:10314000F0E011821082E0EBF0E083EA8083E1EBB3
:10315000F0E083E08083E3EBF0E01082E4EBF0E06A
:103160001082EEE6F0E081E08083E8E6F0E081E0C6
:103170008083EBE6F0E081E08083A8E6B0E0E8E65B
:10318000F0E0808184608C93EDE6F0E084E0808361
:103190000E94A007FE01E159FF4F80E090E0AAEFF6
:1031A000B3E480839183A283B3838E0105591F4FBB
:1031B000FE01E159FF4F608171818281938120E09E
:1031C00030E04AE755E40E94BD23DC01CB01F80161
:1031D00080839183A283B383FE01E559FF4F608111
:1031E00071818281938120E030E040E85FE30E94BA
:1031F000C325882344F4FE01E759FF4F81E090E0A6
:103200009183808364C0FE01E559FF4F6081718125
:103210008281938120E03FEF4FE757E40E946325CE
:1032200018160CF043C0FE01E159FF4F6081718117
:103230008281938120E030E040E251E40E94BD238E
:10324000DC01CB018E0107591F4FBC01CD010E944B
:10325000E721DC01CB01F801918380831FC0FE01CF
:10326000E959FF4F80E991E091838083FE01E9599C
:10327000FF4F808191810197F1F7FE01E959FF4FDE
:1032800091838083DE01A759BF4FFE01E759FF4FAD
:1032900080819181019711969C938E93FE01E7594D
:1032A000FF4F808191810097D1F627C08E01075989
:1032B0001F4FFE01E559FF4F60817181828193812B
:1032C0000E94E721DC01CB01F80191838083DE01BC
:1032D000AB59BF4FFE01E759FF4F808191818D931C
:1032E0009C93FE01EB59FF4F808191810197F1F78B
:1032F000FE01EB59FF4F9183808380E860E00E94DC
:10330000940080E091E00E947C1789E860E00E94D0
:10331000940083E091E00E947C1780EC60E00E94C2
:10332000940086E091E00E947C1789EC60E00E94A6
:10333000940089E091E00E947C1787E690E00E946B
:1033400097207894A5E2B0E0E5E2F0E08081826029
:103350008C93FE01EF59FF4F80E090E0A0E2B1E4D2
:1033600080839183A283B3838E01035A1F4FFE0192
:10337000EF59FF4F60817181828193812BEA3AEA94
:103380004AEA50E40E94BD23DC01CB01F8018083AE
:103390009183A283B383FE01E35AFF4F6081718161
:1033A0008281938120E030E040E85FE30E94C32502
:1033B000882334F4FE01E45AFF4F81E08083E0C0AB
:1033C000FE01E35AFF4F608171818281938120E089
:1033D00030E04FE753E40E94632518160CF0C0C09C
:1033E000FE01EF59FF4F608171818281938120E05E
:1033F00030E04AE754E40E94B724DC01CB01FE012F
:10340000E85AFF4F80839183A283B3838E010C5AC5
:103410001F4FFE01E85AFF4F6081718182819381C5
:1034200020E030E04AE755E40E94BD23DC01CB01F7
:10343000F80180839183A283B383FE01EC5AFF4F8E
:10344000608171818281938120E030E040E85FE318
:103450000E94C325882344F4FE01EE5AFF4F81E009
:1034600090E09183808364C0FE01EC5AFF4F60813D
:1034700071818281938120E03FEF4FE757E40E9402
:10348000632518160CF043C0FE01E85AFF4F608117
:1034900071818281938120E030E040E251E40E941A
:1034A000BD23DC01CB018E010E5A1F4FBC01CD01A3
:1034B0000E94E721DC01CB01F801918380831FC0CA
:1034C000FE01E05BFF4F80E991E091838083FE0184
:1034D000E05BFF4F808191810197F1F7FE01E05B96
:1034E000FF4F91838083DE01AE5ABF4FFE01EE5A3B
:1034F000FF4F80819181019711969C938E93FE01DD
:10350000EE5AFF4F808191810097D1F64BC08E011A
:103510000E5A1F4FFE01EC5AFF4F6081718182816C
:1035200093810E94E721DC01CB01F8019183808324
:10353000DE01A25BBF4FFE01EE5AFF4F80819181F9
:1035400011969C938E93FE01E25BFF4F80819181E7
:103550000197F1F7FE01E25BFF4F9183808322C068
:103560008E01045A1F4FFE01E35AFF4F60817181A3
:10357000828193810E94E721DC01CB01F8018083E5
:10358000DE01A35BBF4FFE01E45AFF4F80818C93A5
:10359000FE01E35BFF4F80818A95F1F7FE01E35B5B
:1035A000FF4F8083A5E2B0E0E5E2F0E080818D7F0F
:1035B0008C93FE01E75BFF4F80E090E0A8E4B2E46B
:1035C00080839183A283B3838E010B5B1F4FFE0127
:1035D000E75BFF4F60817181828193812BEA3AEA38
:1035E0004AEA50E40E94BD23DC01CB01F80180834C
:1035F0009183A283B383FE01EB5BFF4F60817181F6
:103600008281938120E030E040E85FE30E94C3259F
:10361000882334F4FE01EC5BFF4F81E08083A7C078
:10362000FE01EB5BFF4F608171818281938120E01D
:1036300030E04FE753E40E94632518160CF087C072
:10364000FE01E75BFF4F608171818281938120E001
:1036500030E04AE754E40E94B724DC01CB01FE01CC
:10366000E05CFF4F80839183A283B383FE01E05C23
:10367000FF4F608171818281938120E030E04AE7D1
:1036800055E40E94BD23DC01CB018CAF9DAFAEAFF2
:10369000BFAF6CAD7DAD8EAD9FAD20E030E040E8BA
:1036A0005FE30E94C32588232CF481E090E09BAF68
:1036B0008AAF42C06CAD7DAD8EAD9FAD20E03FEFD7
:1036C0004FE757E40E946325181664F5FE01E05C9D
:1036D000FF4F608171818281938120E030E040E280
:1036E00051E40E94BD23DC01CB01BC01CD010E944D
:1036F000E721DC01CB019BAF8AAF0FC080E991E0ED
:1037000099AF88AF88AD99AD0197F1F799AF88AFC0
:103710008AAD9BAD01979BAF8AAF8AAD9BAD0097F9
:1037200069F72EC06CAD7DAD8EAD9FAD0E94E721D7
:10373000DC01CB019BAF8AAF8AAD9BAD9FAB8EAB5B
:103740008EA99FA90197F1F79FAB8EAB19C08E018F
:103750000C5B1F4FFE01EB5BFF4F6081718182812B
:1037600093810E94E721DC01CB01F8018083FE01F7
:10377000EC5BFF4F80818DAB8DA98A95F1F78DAB06
:1037800080914D02882F90E081709070882309F419
:103790006FC280914D028E7F80934D02ECE7F0E086
:1037A0008081882F90E082709070009709F05EC051
:1037B000ECE7F0E08081882F90E0817090700097B6
:1037C00009F054C0E8E7F0E080819181CC01A0E0ED
:1037D000B0E0BC01CD010E94A526DC01CB01BC01FB
:1037E000CD0120EC3EE34AEF5EE30E94BD23DC0105
:1037F000CB01BC01CD010E94E721DC01CB0180930C
:103800004502809145028E3120F4E3EBF0E0108216
:1038100028C0809145028E3100F1809145028D33A0
:10382000E0F4E3EBF0E080914502482F50E0CA015C
:103830009C01220F331FC9019695982F88279795D1
:103840008795821B930B840F951F2CE330E0B90101
:103850000E942729CB01808304C0E3EBF0E08FEFC7
:103860008083ECE7F0E081E4808302C2ECE7F0E0E3
:103870008081882F90E081709070882309F46BC05C
:1038800084E68093440280914402882F90E0AA2726
:1038900097FDA095BA2FBC01CD010E94F3257B01B5
:1038A0008C01E8E7F0E080819181CC01A0E0B0E0FC
:1038B000BC01CD010E94A526DC01CB01BC01CD01DC
:1038C00027E231E348EC5DEB0E94BD23DC01CB0134
:1038D0009C01AD01C801B7010E949023DC01CB011E
:1038E000BC01CD010E94E721DC01CB0180934402A1
:1038F000E9E2F0E08081882F90E08470907000977A
:1039000021F480914402823320F0E4EBF0E0108255
:103910001DC0809144028233C8F4E4EBF0E0809152
:103920004402282F30E081E09FEFAC01249FC001CA
:10393000259F900D349F900D11248055904B20E5CC
:1039400030E0B9010E942729CB018083ECE7F0E049
:1039500082E480838DC1ECE7F0E08081882F90E0E5
:1039600082709070009709F483C1E8E7F0E020814D
:10397000318180E094E0821B930BCC01A0E0B0E0A9
:10398000BC01CD010E94A526DC01CB018093480239
:1039900090934902A0934A02B0934B0220914802AF
:1039A0003091490240914A0250914B0260E070EC24
:1039B0008FE794E40E94B724DC01CB018093480296
:1039C00090934902A0934A02B0934B02809148021F
:1039D00090914902A0914A02B0914B02BC01CD01E5
:1039E00020E030E04AE754E40E94BD23DC01CB0133
:1039F0008093480290934902A0934A02B0934B02ED
:103A0000E8E7F0E080819181CC01A0E0B0E0BC016A
:103A1000CD010E94A526DC01CB01BC01CD0124E82B
:103A20003BE240EA5BE30E94BD23DC01CB01209135
:103A300048023091490240914A0250914B02BC0128
:103A4000CD010E94BD23DC01CB01809348029093FD
:103A50004902A0934A02B0934B0280914802909190
:103A60004902A0914A02B0914B02BC01CD010E94D3
:103A7000E721DC01CB018093460250914602809100
:103A8000460280914602843618F580914D02882FB7
:103A900090E0827090700097D9F0EAE8F0E08081C1
:103AA0009181009761F0AAE8B0E0EAE8F0E0808157
:103AB0009181885C904011969C938E9309C0EAE8AE
:103AC000F0E01182108280914D028D7F80934D0233
:103AD000ECE7F0E080E48083A5E2B0E0E5E2F0E02E
:103AE000808182608C9380E090E0A0E2B1E489ABB9
:103AF0009AABABABBCAB69A97AA98BA99CA92BEA01
:103B00003AEA4AEA50E40E94BD23DC01CB018DA7CA
:103B10009EA7AFA7B8AB6DA57EA58FA598A920E0FD
:103B200030E040E85FE30E94C32588231CF481E075
:103B30008CA791C06DA57EA58FA598A920E030E047
:103B40004FE753E40E94632518160CF07BC069A967
:103B50007AA98BA99CA920E030E04AE754E40E94AE
:103B6000B724DC01CB0188A799A7AAA7BBA768A5A2
:103B700079A58AA59BA520E030E04AE755E40E949C
:103B8000BD23DC01CB018CA39DA3AEA3BFA36CA17D
:103B90007DA18EA19FA120E030E040E85FE30E947C
:103BA000C32588232CF481E090E09BA38AA33FC027
:103BB0006CA17DA18EA19FA120E03FEF4FE757E4CC
:103BC0000E94632518164CF568A579A58AA59BA5C2
:103BD00020E030E040E251E40E94BD23DC01CB0153
:103BE000BC01CD010E94E721DC01CB019BA38AA38C
:103BF0000FC080E991E099A388A388A199A10197BA
:103C0000F1F799A388A38AA19BA101979BA38AA3FB
:103C10008AA19BA1009769F724C06CA17DA18EA108
:103C20009FA10E94E721DC01CB019BA38AA38AA16B
:103C30009BA19F8F8E8F8E8D9F8D0197F1F79F8F08
:103C40008E8F0FC06DA57EA58FA598A90E94E72134
:103C5000DC01CB018CA78CA58D8F8D8D8A95F1F71A
:103C60008D8FA5E2B0E0E5E2F0E080818D7F8C935E
:103C700080E090E0AAE7B3E4898F9A8FAB8FBC8F86
:103C8000698D7A8D8B8D9C8D20E030E04AE755E47C
:103C90000E94BD23DC01CB018D8B9E8BAF8BB88F37
:103CA0006D897E898F89988D20E030E040E85FE360
:103CB0000E94C32588232CF481E090E09C8B8B8BA1
:103CC0003FC06D897E898F89988D20E03FEF4FE757
:103CD00057E40E94632518164CF5698D7A8D8B8DFB
:103CE0009C8D20E030E040E251E40E94BD23DC01E5
:103CF000CB01BC01CD010E94E721DC01CB019C8BF3
:103D00008B8B0FC080E991E09A8B898B89899A8986
:103D10000197F1F79A8B898B8B899C8901979C8BF2
:103D20008B8B8B899C89009769F714C06D897E897C
:103D30008F89988D0E94E721DC01CB019C8B8B8BB6
:103D40008B899C89988B8F878F8598890197F1F74C
:103D5000988B8F87FE01ED58FF4F80810E940120D4
:103D6000AAE7B0E0EAE7F0E0808180648C9380E02D
:103D700090E0AAE7B3E48B879C87AD87BE876B850D
:103D80007C858D859E8520E030E04AE755E40E94E1
:103D9000BD23DC01CB018F839887A987BA876F8108
:103DA000788589859A8520E030E040E85FE30E94CD
:103DB000C32588232CF481E090E09E838D833FC04F
:103DC0006F81788589859A8520E03FEF4FE757E43A
:103DD0000E94632518164CF56B857C858D859E8524
:103DE00020E030E040E251E40E94BD23DC01CB0141
:103DF000BC01CD010E94E721DC01CB019E838D83B4
:103E00000FC080E991E09C838B838B819C8101971B
:103E1000F1F79C838B838D819E8101979E838D8397
:103E20008D819E81009769F7ABCC6F8178858985FC
:103E30009A850E94E721DC01CB019E838D838D81D1
:103E40009E819A83898389819A810197F1F79A8368
:103E5000898396CC1F920F920FB60F9211242F9345
:103E60003F934F935F936F937F938F939F93AF9302
:103E7000BF93EF93FF93DF93CF93CDB7DEB7E3E22A
:103E8000F0E08081882F90E081709070882341F06D
:103E9000E5E4F0E085E08083E6E4F0E010824CC0E9
:103EA000E3E2F0E08081882F90E0817090700097CD
:103EB00009F042C0E6E4F0E08081809347028091FF
:103EC0004C02482F50E0CA019C01220F331FC90148
:103ED0009695982F882797958795821B930B840F2B
:103EE000951F982F80914702890F809347028091F8
:103EF0004702882F90E0AA2797FDA095BA2FBC0112
:103F0000CD010E94F325DC01CB01BC01CD0126E8E7
:103F10003DE34DE85FE30E94BD23DC01CB01BC0122
:103F2000CD010E94E721DC01CB0180934702E5E44B
:103F3000F0E0108210924C02CF91DF91FF91EF914F
:103F4000BF91AF919F918F917F916F915F914F91B1
:103F50003F912F910F900FBE0F901F9018951F92B9
:103F60000F920FB60F9211248F939F93EF93FF93AD
:103F7000DF93CF93CDB7DEB7E9E2F0E08081882F01
:103F800090E084709070009719F0E4EBF0E01082FC
:103F9000CF91DF91FF91EF919F918F910F900FBE85
:103FA0000F901F9018951F920F920FB60F92112429
:103FB0008F93DF93CF93CDB7DEB780914C028F5FA5
:103FC00080934C02CF91DF918F910F900FBE0F9095
:103FD0001F9018951F920F920FB60F9211248F9376
:103FE000DF93CF93CDB7DEB780914D028160809390
:103FF0004D02CF91DF918F910F900FBE0F901F90C8
:104000001895DF93CF930F92CDB7DEB789838CE0FD
:1040100091E00E94DF2080914502882F90E00E946D
:10402000FB2089E191E00E94DF208BE191E00E947A
:10403000DF2080914402882F90E00E94FB2089E1DC
:1040400091E00E94DF2084E291E00E94DF208091D5
:104050004602882F90E00E94FB2089E191E00E94B7
:10406000DF2089E291E00E94DF2080914702882FC3
:1040700090E00E94FB2089E191E00E94DF201982FC
:1040800027C089818E5760E00E94940081E061E042
:104090000E9494008981855760E00E94940081E02D
:1040A00061E00E94940089818E5360E00E94940038
:1040B00081E061E00E9494008981855360E00E9464
:1040C000940081E061E00E94940089818F5F898380
:1040D00089818530B0F280914502882F90E062E8B6
:1040E0000E94D21784E391E00E947C1780914402E1
:1040F000882F90E06BE80E94D21786E391E00E943F
:104100007C1780914602882F90E062EC0E94D217C3
:1041100080914702882F90E06BEC0E94D21788E3D1
:1041200091E00E947C170F90CF91DF910895DF936B
:10413000CF9300D0CDB7DEB79A838983E5ECF0E06A
:1041400089819A81892F99278083E4ECF0E0898125
:104150008083E0ECF0E01082E1ECF0E088E980831D
:10416000E2ECF0E086E080830F900F90CF91DF913A
:104170000895DF93CF930F92CDB7DEB78983E0EC3C
:10418000F0E08081882F90E0807290700097B9F302
:10419000E6ECF0E0898180830F90CF91DF91089564
:1041A000DF93CF93CDB7DEB7E0ECF0E080818823DA
:1041B000DCF7E6ECF0E08081CF91DF910895DF93AA
:1041C000CF9300D0CDB7DEB79A8389830AC0E98147
:1041D000FA8180810E94B92089819A8101969A830F
:1041E0008983E981FA818081882389F70F900F9074
:1041F000CF91DF910895EF92FF920F931F93DF937A
:10420000CF93CDB7DEB729970FB6F894DEBF0FBEB8
:10421000CDBF998788871A821982888599850097EA
:1042200009F44DC089819A8101969A838983898195
:104230009A81AA2797FDA095BA2FBC01CD010E94B3
:10424000F3259B01AC0160E070E080E291E40E9404
:104250007129DC01CB017C018D0188859985CC0118
:10426000A0E0B0E0BC01CD010E94A5269B01AC01FD
:10427000C801B7010E9463251816A4F688859985A0
:104280009E012D5F3F4FB9010E94A42112C0898178
:104290009A819C0121503040CE010396FC01E20F2F
:1042A000F31F80810E94B92089819A8101979A83A6
:1042B000898389819A81181619064CF307C088856D
:1042C0009985009719F480E30E94B92029960FB6CA
:1042D000F894DEBF0FBECDBFCF91DF911F910F913C
:1042E000FF90EF900895DF93CF93CDB7DEB7289777
:1042F0000FB6F894DEBF0FBECDBF98878F8310C076
:104300008F8198859E838D83ED81FE8184918C833E
:104310008C810E94B9208F819885019698878F8320
:104320008F8198859B838A83EA81FB81849189832D
:104330008981882329F728960FB6F894DEBF0FBE2F
:10434000CDBFCF91DF910895DF93CF9300D000D000
:104350000F92CDB7DEB79B838A837D836C831982EE
:104360000DC08981282F30E08C819D81FC01E20FF6
:10437000F31F80E3808389818F5F89838981853002
:1043800080F38A819B812AE030E0B9010E941329E1
:10439000805DEC81FD8180838A819B812AE030E011
:1043A000B9010E941329CB019B838A838C819D8153
:1043B00001969D838C838A819B81009711F70F90D2
:1043C0000F900F900F900F90CF91DF910895EF9283
:1043D000FF920F931F937B018C0120E030E040E0BF
:1043E0005FE40E94932588238CF0C801B70120E088
:1043F00030E040E05FE40E945F230E9451269B0171
:10440000AC01205030404040504806C0C801B701C0
:104410000E9451269B01AC01B901CA011F910F9165
:10442000FF90EF900895A0E0B0E0E9E1F2E20C9493
:104430003A29DC012B01FA019C91923008F439C130
:10444000EB018881823008F433C1943069F4843000
:1044500009F02FC111969C9111978981981709F441
:1044600028C1ABE3B1E025C1843009F421C1823019
:10447000A9F4923009F01DC19A01AD0188E0EA016A
:104480000990AE01E90109929E018150C1F7E20154
:10449000898111969C918923818308C1923009F406
:1044A00007C112962D903C901397EB018A819B8156
:1044B0001496AD90BD90CD90DC901797EC80FD8068
:1044C0000E811F819101281B390BB90137FF04C0F0
:1044D00066277727621B730B603271050CF061C091
:1044E000121613066CF537014801062E04C0969487
:1044F0008794779467940A94D2F721E030E040E003
:1045000050E004C0220F331F441F551F6A95D2F795
:1045100021503040404050402E213F214023512324
:10452000211531054105510521F021E030E040E041
:1045300050E079018A01E628F728082919293CC0AA
:10454000232BD1F1260E371E35014601062E04C05D
:1045500096948794779467940A94D2F721E030E098
:1045600040E050E004C0220F331F441F551F6A95DE
:10457000D2F721503040404050402A213B214C216D
:104580005D21211531054105510521F021E030E083
:1045900040E050E059016A01A628B728C828D92868
:1045A0000BC0821593052CF01C01AA24BB246501C5
:1045B00003C0EE24FF24870111969C91D20111962D
:1045C0008C91981709F445C0992339F0A8019701F7
:1045D0002A193B094C095D0906C0A60195012E194F
:1045E0003F09400B510B57FD08C0118233822282D4
:1045F00024833583468357831DC081E081833382C2
:10460000228288279927DC01821B930BA40BB50B10
:1046100084839583A683B7830DC0220F331F441F65
:10462000551F248335834683578382819381019765
:10463000938382832481358146815781DA01C901C0
:104640000197A109B1098F5F9F4FAF4FBF4328F377
:104650000BC0918333822282EA0CFB1C0C1D1D1DB2
:10466000E482F5820683178383E080832481358189
:104670004681578157FF1AC0C901AA2797FDA09507
:10468000BA2F81709070A070B0705695479537958D
:104690002795822B932BA42BB52B84839583A683FC
:1046A000B78382819381019693838283DF0101C066
:1046B000D201CD01CDB7DEB7E2E10C945629A0E2DC
:1046C000B0E0E5E6F3E20C94462969837A838B83B4
:1046D0009C832D833E834F835887E9E0EE2EF12C97
:1046E000EC0EFD1ECE010196B7010E9442288E01FC
:1046F0000F5E1F4FCE010596B8010E9442288A899D
:1047000091E089278A8BC701B801AE01475E5F4FF0
:104710000E9413220E946D27A096E6E00C94622965
:10472000A0E2B0E0E6E9F3E20C94462969837A83DB
:104730008B839C832D833E834F835887F9E0EF2E34
:10474000F12CEC0EFD1ECE010196B7010E9442280D
:104750008E010F5E1F4FCE010596B8010E944228C0
:10476000C701B801AE01475E5F4F0E9413220E944D
:104770006D27A096E6E00C946229A0E2B0E0E3EC9D
:10478000F3E20C943A2969837A838B839C832D838B
:104790003E834F835887CE010196BE01675F7F4FEE
:1047A0000E944228CE010596BE016F5E7F4F0E9497
:1047B00042289985923088F089898230C8F09430F7
:1047C00019F4823051F404C0843029F4923081F419
:1047D0008BE391E0C6C0923049F420E09A858A8943
:1047E000981321E02A87CE010996BBC0823049F494
:1047F00020E09A858A89981321E02A8BCE01419680
:10480000B0C02D843E844F8458886D887E888F8800
:10481000988CEE24FF248701AA24BB24650140E084
:1048200050E060E070E0E0E0F0E0C1018170907085
:10483000892BE9F0E60CF71C081D191D9A01AB0144
:104840002A0D3B1D4C1D5D1D80E090E0A0E0B0E016
:10485000E614F7040805190520F481E090E0A0E0D3
:10486000B0E0BA01A901480F591F6A1F7B1FAA0CAB
:10487000BB1CCC1CDD1C97FE08C081E090E0A0E0D2
:10488000B0E0A82AB92ACA2ADB2A3196E032F1051B
:1048900049F0660C771C881C991C569447943794F1
:1048A0002794C3CFFA85EA892B893C898B859C851F
:1048B000280F391F2E5F3F4F17C0CA0181709070BB
:1048C000892B61F016950795F794E79480E090E0C6
:1048D000A0E0B0E8E82AF92A0A2B1B2B7695679509
:1048E000579547952F5F3F4F77FDE7CF0CC0440F9B
:1048F000551F661F771F17FD4160EE0CFF1C001F40
:10490000111F21503040403090E0590790E0690776
:1049100090E4790760F32B8F3C8FDB01CA018F771E
:104920009070A070B07080349105A105B10561F45C
:1049300047FD0AC0E114F1040105110529F0405CAE
:104940005F4F6F4F7F4F40781A8EFE1711F081E056
:104950008A8F4D8F5E8F6F8F78A383E0898FCE0112
:1049600049960E946D27A096E2E10C945629A8E191
:10497000B0E0EDEBF4E20C94422969837A838B83F7
:104980009C832D833E834F835887B9E0EB2EF12C17
:10499000EC0EFD1ECE010196B7010E9442288E0149
:1049A0000F5E1F4FCE010596B8010E94422829854F
:1049B000223008F47EC03989323010F4B8017CC04E
:1049C0008A859A8989278A87243011F0223031F428
:1049D000231709F06EC06BE371E06EC0343039F418
:1049E0001D861E861F86188A1C861B8604C03230D0
:1049F00021F484E08987B7015FC02B853C858B89D2
:104A00009C89281B390B3C872B87ED84FE840F85FE
:104A10001889AD88BE88CF88D88CEA14FB040C05B1
:104A20001D0540F4EE0CFF1C001F111F21503040EB
:104A30003C872B8720E030E040E050E080E090E0D1
:104A4000A0E0B0E460E070E0EA14FB040C051D0592
:104A500040F0282B392B4A2B5B2BEA18FB080C095A
:104A60001D09B695A79597958795EE0CFF1C001F1D
:104A7000111F6F5F7F4F6F31710531F7DA01C90187
:104A80008F779070A070B07080349105A105B1054A
:104A900061F427FD0AC0E114F1040105110529F0B4
:104AA000205C3F4F4F4F5F4F20782D873E874F87C9
:104AB000588BBE01675F7F4FCB010E946D276896C0
:104AC000EAE00C945E29A8E1B0E0E9E6F5E20C9496
:104AD000462969837A838B839C832D833E834F830E
:104AE000588789E0E82EF12CEC0EFD1ECE010196D0
:104AF000B7010E9442288E010F5E1F4FCE0105961E
:104B0000B8010E9442288985823040F0898982302C
:104B100028F0C701B8010E94BA2801C08FEF68963B
:104B2000E6E00C946229A8E1B0E0E9E9F5E20C9432
:104B3000462969837A838B839C832D833E834F83AD
:104B4000588789E0E82EF12CEC0EFD1ECE0101966F
:104B5000B7010E9442288E010F5E1F4FCE010596BD
:104B6000B8010E9442288985823040F089898230CC
:104B700028F0C701B8010E94BA2801C08FEF6896DB
:104B8000E6E00C946229A8E1B0E0E9ECF5E20C94CF
:104B9000462969837A838B839C832D833E834F834D
:104BA000588789E0E82EF12CEC0EFD1ECE0101960F
:104BB000B7010E9442288E010F5E1F4FCE0105965D
:104BC000B8010E9442288985823040F0898982306C
:104BD00028F0C701B8010E94BA2801C081E0689698
:104BE000E6E00C946229A8E0B0E0E9EFF5E20C946D
:104BF00043299B01AC0183E08983DA01C90188273D
:104C0000B7FD83959927AA27BB27B82E2115310513
:104C10004105510519F482E089833AC08823A9F03F
:104C2000203080E0380780E0480780E8580729F402
:104C300060E070E080E09FEC30C0EE24FF2487014C
:104C4000E21AF30A040B150B02C079018A018EE106
:104C5000C82ED12CDC82CB82ED82FE820F83188796
:104C6000C801B7010E941E2701971816190684F47F
:104C7000082E04C0EE0CFF1C001F111F0A94D2F76F
:104C8000ED82FE820F831887C81AD90ADC82CB8294
:104C9000BA82CE0101960E946D272896E9E00C9415
:104CA0005F29ACE0B0E0E7E5F6E20C944A296983BD
:104CB0007A838B839C83CE010196BE016B5F7F4F0D
:104CC0000E9442288D81823061F1823050F184301F
:104CD00021F48E81882351F12EC02F81388537FD34
:104CE00020C06E812F3131051CF06623F9F023C0FE
:104CF0008EE190E0821B930B29853A854B855C857C
:104D000004C056954795379527958A95D2F766231F
:104D1000B1F050954095309521953F4F4F4F5F4FE3
:104D20000EC020E030E040E050E009C02FEF3FEF40
:104D30004FEF5FE704C020E030E040E050E8B90109
:104D4000CA012C96E2E00C946629A8E0B0E0EBEAF8
:104D5000F6E20C9442297B018C01611571058105F5
:104D6000910519F482E0898360C083E089838EE134
:104D7000C82ED12CDC82CB82ED82FE820F83188775
:104D8000C801B7010E941E27FC013197F7FF3BC005
:104D9000222733272E1B3F0B57016801022E04C028
:104DA000D694C794B794A7940A94D2F740E050E001
:104DB00060E070E081E090E0A0E0B0E004C0880F27
:104DC000991FAA1FBB1F2A95D2F70197A109B10904
:104DD0008E219F21A023B1230097A105B10521F0C9
:104DE00041E050E060E070E04A295B296C297D29B0
:104DF0004D835E836F8378878EE190E08E1B9F0BDF
:104E00009C838B8312C0309781F00E2E04C0EE0C71
:104E1000FF1C001F111F0A94D2F7ED82FE820F8340
:104E20001887CE1ADF0ADC82CB821A82CE01019665
:104E30000E946D272896EAE00C945E29EF92FF927B
:104E40000F931F937B018C0180E0E81680E0F80649
:104E500081E0080780E0180788F48FEFE816F10476
:104E60000105110531F028F088E090E0A0E0B0E005
:104E700017C080E090E0A0E0B0E012C080E0E8164B
:104E800080E0F80680E0080781E0180728F088E154
:104E900090E0A0E0B0E004C080E190E0A0E0B0E0ED
:104EA00020E230E040E050E0281B390B4A0B5B0B5E
:104EB00004C016950795F794E7948A95D2F7F70101
:104EC000ED5BFE4F8081281B310941095109C90161
:104ED0001F910F91FF90EF900895DF92EF92FF9254
:104EE0000F931F93FC01E480F58006811781D18028
:104EF0008081823048F480E090E0A0E1B0E0E82AD0
:104F0000F92A0A2B1B2BA5C0843009F49FC08230DC
:104F100021F4EE24FF24870105C0E114F10401050A
:104F2000110519F4E0E0F0E096C0628173819FEF13
:104F3000623879070CF05BC022E83FEF261B370B85
:104F40002A3131052CF020E030E040E050E02AC06A
:104F5000B801A701022E04C076956795579547952D
:104F60000A94D2F781E090E0A0E0B0E004C0880F9E
:104F7000991FAA1FBB1F2A95D2F70197A109B10952
:104F80008E219F21A023B1230097A105B10521F017
:104F900081E090E0A0E0B0E09A01AB01282B392B32
:104FA0004A2B5B2BDA01C9018F779070A070B0702B
:104FB00080349105A105B10539F427FF09C0205CB3
:104FC0003F4F4F4F5F4F04C0215C3F4F4F4F5F4FEC
:104FD000E0E0F0E02030A0E03A07A0E04A07A0E4DB
:104FE0005A0710F0E1E0F0E079018A0127C060384B
:104FF000710564F5FB01E158FF4FD801C7018F77B8
:105000009070A070B07080349105A105B10539F49D
:10501000E7FE0DC080E490E0A0E0B0E004C08FE3C4
:1050200090E0A0E0B0E0E80EF91E0A1F1B1F17FF7A
:1050300005C016950795F794E794319687E0169585
:105040000795F794E7948A95D1F705C0EE24FF24DD
:105050008701EFEFF0E06E2F679566276795902F39
:105060009F77D794DD24D7948E2F8695492F462B92
:10507000582F5D29B701CA011F910F91FF90EF9042
:10508000DF900895FC01DB01408151812281622F74
:105090006F7770E0221F2227221F9381892F880FAC
:1050A000822B282F30E0991F9927991F11969C93E6
:1050B000119721153105A9F54115510561057105B6
:1050C00011F482E037C082E89FEF13969C938E9391
:1050D00012979A01AB0167E0220F331F441F551F3F
:1050E0006A95D1F783E08C930DC0220F331F441FC4
:1050F000551F12968D919C911397019713969C932F
:105100008E931297203080E0380780E0480780E4D3
:10511000580758F314962D933D934D935C9317972E
:1051200008952F3F310579F4411551056105710549
:1051300019F484E08C93089564FF03C081E08C939C
:1051400012C01C9210C02F57304013963C932E93E0
:10515000129783E08C9387E0440F551F661F771FDB
:105160008A95D1F7706414964D935D936D937C93FB
:10517000179708951F93DC01FB019C91923008F46E
:1051800047C08081823008F443C0943051F41196B6
:105190001C91843099F58181682F70E0611B710941
:1051A0003FC0843021F0923031F48230B9F18181F6
:1051B000882389F12DC011961C9111978230F1F04E
:1051C00081811817D9F412962D913C911397828101
:1051D00093818217930794F028173907BCF014962F
:1051E0008D919D910D90BC91A02D2481358146819A
:1051F0005781281739074A075B0718F4112341F034
:105200000AC082179307A407B50740F4112319F0C9
:1052100061E070E005C06FEF7FEF02C060E070E01A
:10522000CB011F910895AA1BBB1B51E107C0AA1F08
:10523000BB1FA617B70710F0A61BB70B881F991F37
:105240005A95A9F780959095BC01CD01089597FBDB
:10525000092E07260AD077FD04D0E5DF06D000200E
:105260001AF4709561957F4F0895F6F790958195A2
:105270009F4F08952F923F924F925F926F927F922D
:105280008F929F92AF92BF92CF92DF92EF92FF9256
:105290000F931F93CF93DF93CDB7DEB7CA1BDB0B02
:1052A0000FB6F894DEBF0FBECDBF09942A883988A7
:1052B00048885F846E847D848C849B84AA84B984AE
:1052C000C884DF80EE80FD800C811B81AA81B981BA
:1052D000CE0FD11D0FB6F894DEBF0FBECDBFED01CE
:1052E0000895E42FF52FEE0FFF1F309621053105AD
:1052F000A1F16115710561F48038BFE39B0751F19D
:1053000068949038810561F08038BFEF9B0741F0C9
:1053100099234AF5FF3FE1053105210519F1E8948C
:105320000894E795A22FB32FAA2329F4AB2FBE2F01
:10533000F85FD0F310C0FF5F70F4A695E0F7F7397F
:1053400050F019F0FF3A38F49F779F930CD00F90EC
:1053500007FC905808953EF049C060E070E080E896
:105360009FE308954FE79F775F934F933F932F936A
:10537000E5D02F913F914F915F91FFD905C019F46E
:105380000EF02EC08FC032C073D0C8F39638C0F76D
:1053900007F80F92E8942BE33AEA48EB5FE757D11E
:1053A0000F920F920F924DB75EB70F920CD1E8E6B5
:1053B000F0E01FD04F915F91EF91FF91E595EE1FC7
:1053C000FF1F49F0FE57E0684427EE0F441FFA958F
:1053D000E1F74195550B79D00F9007FE6BC008950A
:1053E00097F99F6780E870E060E008959FEF80EC98
:1053F0000895DF93CF931F930F93FF92EF92DF9265
:10540000E62EF72E082F192F689407C0DA2ECE2F1C
:10541000DF2F1BD1EC2FFD2FE894C895A02D3196DE
:10542000C895202D3196C895302D3196C895402DC0
:105430003196C895502D31964EF3CE2FDF2F72D175
:10544000EC2FFD2F2E2D3F2D402F512FDA94F9F602
:10545000DF90EF90FF900F911F91CF91DF91089512
:1054600057FD9058440F551F59F05F3F71F0479515
:10547000880F97FB991F61F09F3F79F087950895FA
:10548000121613061406551FF2CF4695F1DF08C019
:10549000161617061806991FF1CF86957105610536
:1054A00008940895E894BB2766277727862F972FBF
:1054B00097F90895262F372F482F592F60E070E075
:1054C00080E89FE354CA8CCF85C1D2DFE8F39923EB
:1054D000D9F3940F511DBBF39150504094F059F003
:1054E000882332F0660F771F881F91505040C1F714
:1054F0009E3F510544F7880F911D9695879597F922
:1055000008955F3FACF0983E9CF0BB278695779559
:105510006795B79508F4B1609395C1F7BB0F58F73D
:1055200011F460FFE8CF6F5F7F4F8F4F9F4FE3CF46
:10553000BACF0EF04FC15ACF689452CF99DFC8F35B
:105540009923D1F3C6F3DF93CF931F930F93FF9269
:10555000C92FDD2788232AF02197660F771F881F20
:10556000DAF720E030E040E85FEB9FE3883920F095
:10557000803E30F021968F77D3D8E0E9F0E003C089
:10558000CFD8EDEBF0E035DF062F172F6C2F7D2FF6
:10559000C82FD92FFB2E6F5771097595771F880B70
:1055A000990B21DB28E132E741E35FE34ED0AF2DD9
:1055B000202F312F4C2F5D2FFF900F911F91CF91F6
:1055C000DF91B0D023C1E42FF52FA82FB92FAA0F58
:1055D000BB1F262F372F482F592FBF5728F42227BC
:1055E00033274427507821C0B75188F4AB2F0024CB
:1055F000469537952795011CA395D2F3002069F0B5
:10560000220F331F441FB395DAF30FD058C861300F
:105610007105A0E88A07B94640F4262F372F482F96
:10562000592F6627772788279078309621F0208396
:105630003183428353830895DBD028F0E0D018F003
:10564000952309F0CDCED2CE2ECF0ADFA8F3992331
:10565000D9F35523C9F3950F50E0551FAA27EE271C
:10566000FF27BB2700240894679520F4E20FF31F5F
:10567000B41F0A1E220F331F441FAA1F6695A9F7E5
:10568000779530F4F30FB41F0A1E121E08F46395C9
:10569000330F441FAA1F221F769599F7879520F490
:1056A000B40F0A1E121E631F440FAA1F221F331FAE
:1056B0008695A9F7862F712D602D11249F57504094
:1056C0008AF0E1F088234AF0EE0FFF1FBB1F661F30
:1056D000771F881F91505040A9F79E3F510570F0E9
:1056E0007FCEE1CE5F3FECF3983EDCF38695779575
:1056F0006795B795F795E7959F5FC1F7FE2B880FE4
:10570000911D9695879597F9089572D030F077D0CE
:1057100020F031F49F3F11F41EF468CE0EF4E095B2
:10572000E7FB5ECEE92F9CDE80F3BA1762077307B2
:105730008407950718F099F4C6F5B4CE0EF4E095F9
:105740000B2EBA2FA02D062E622F202D072E732F81
:10575000302D082E842F402D092E952F502DFF27F8
:10576000591B99F0593F50F4503E68F11A16F04019
:10577000A22F232F342F4427585FF3CF4695379518
:105780002795A795F0405395C9F77EF41F16BA0BDD
:10579000620B730B840BBAF09150A1F0FF0FBB1F8B
:1057A000661F771F881FC2F70EC0BA0F621F731FD4
:1057B000841F48F4879577956795B795F7959E3F31
:1057C00008F0AECF9395880F08F09927EE0F9795C4
:1057D000879508959F3F31F0915020F487957795F4
:1057E0006795B795880F911D9695879597F90895B8
:1057F00000240A94161617061806090608950024B0
:105800000A9412161306140605060895092E039429
:10581000000C11F4882352F0BB0F40F4BF2B11F49D
:1058200060FF04C06F5F7F4F8F4F9F4F0895F894C4
:02583000FFCFA8
:10583200543A00553A004C3A00443A0054656D70AF
:10584200657261747572613A000D00556D6964612B
:1058520064653A004C757A3A0044697374616E6308
:1058620069613A0043002500636D000000000000FA
:105872000000000001020203030303040404040401
:1058820004040405050505050505050505050505C9
:1058920005050506060606060606060606060606A9
:1058A2000606060606060606060606060606060696
:1058B2000606060707070707070707070707070779
:1058C2000707070707070707070707070707070766
:1058D2000707070707070707070707070707070756
:1058E2000707070707070707070707070707070746
:1058F2000707070808080808080808080808080829
:105902000808080808080808080808080808080815
:105912000808080808080808080808080808080805
:1059220008080808080808080808080808080808F5
:1059320008080808080808080808080808080808E5
:1059420008080808080808080808080808080808D5
:1059520008080808080808080808080808080808C5
:1059620008080808080808080808080808080808B5
:045972000808080019
:00000001FF
